:100000000C942A000C9434000C9434000C943400AA
:100010000C9434000C9434000C9434000C94340090
:100020000C9434000C9434000C9434000C94340080
:100030000C9434000C9434000C9434000C94340070
:100040000C9434000C9434000C9434000C94340060
:100050000C94340011241FBECFE5D8E0DEBFCDBF25
:100060000E9436000C9445000C940000DF93CF935F
:10007000CDB7DEB7E4E3F0E08FEF8083E5E3F0E0B7
:0E00800081E08083CF91DF910895F894FFCF47
:00000001FF
