:100000000C942A000C9434000C9434000C943400AA
:100010000C9434000C9434000C9434000C94340090
:100020000C9434000C9434000C9434000C94340080
:100030000C9434000C9434000C9434000C94340070
:100040000C9434000C9434000C9434000C94340060
:100050000C94340011241FBECFE5D8E0DEBFCDBF25
:100060000E94A2010C94F4010C9400004130C9F5E7
:10007000683008F075C0813099F0813030F08230FE
:10008000D1F0833009F06CC021C02AB381E090E048
:1000900002C0880F991F6A95E2F7282B2ABB5EC021
:1000A00027B381E090E002C0880F991F6A95E2F7BC
:1000B000282B27BB53C024B381E090E002C0880FF7
:1000C000991F6A95E2F7282B24BB48C021B381E031
:1000D00090E002C0880F991F6A95E2F7282B21BB98
:1000E0003DC0442309F03CC06830D0F5813099F020
:1000F000813028F08230D9F0833091F524C02AB3C2
:1001000081E090E002C0880F991F6A95E2F7809520
:1001100082238ABB23C027B381E090E002C0880F0E
:10012000991F6A95E2F78095822387BB17C024B395
:1001300081E090E002C0880F991F6A95E2F78095F0
:10014000822384BB0BC021B381E090E002C0880F02
:10015000991F6A95E2F78095822381BB81E008951B
:1001600080E008956130A9F4813051F0813028F0A9
:10017000823049F0833009F509C08FEF8ABB1BC07C
:100180008FEF87BB18C08FEF84BB15C08FEF81BB8B
:1001900012C0662391F4813049F0813028F082301A
:1001A00039F0833051F406C01ABA05C017BA03C03B
:1001B00014BA01C011BA81E0089580E00895683052
:1001C00008F074C04130B1F5813099F0813030F0E1
:1001D0008230D1F0833009F069C021C02BB381E0B7
:1001E00090E002C0880F991F6A95E2F7282B2BBB7D
:1001F0005BC028B381E090E002C0880F991F6A9528
:10020000E2F7282B28BB50C025B381E090E002C064
:10021000880F991F6A95E2F7282B25BB45C022B3AA
:1002200081E090E002C0880F991F6A95E2F7282BC1
:1002300022BB3AC04423D1F5813099F0813028F0B7
:100240008230D9F0833091F524C02BB381E090E067
:1002500002C0880F991F6A95E2F7809582238BBBB5
:1002600023C028B381E090E002C0880F991F6A95EF
:10027000E2F78095822388BB17C025B381E090E028
:1002800002C0880F991F6A95E2F78095822385BB8B
:100290000BC022B381E090E002C0880F991F6A95DD
:1002A000E2F78095822382BB81E0089580E0089583
:1002B000813051F0813030F0823041F0833049F0AC
:1002C00080E008956BBB03C068BB01C065BB81E0E3
:1002D000089562BB81E00895FA016830D0F481305E
:1002E00049F0813028F0823039F0833091F406C033
:1002F00089B305C086B303C083B301C080B390E067
:1003000002C0959587956A95E2F78170808381E0B8
:10031000089580E00895FB01813051F0813030F084
:10032000823041F0833051F080E0089589B303C0FA
:1003300086B301C083B3808381E0089580B3808356
:1003400081E00895EF92FF920F931F93DF93CF9375
:1003500000D0CDB7DEB781E060E00E94B20081E05E
:100360006FEF0E94580180E061E041E00E9436009A
:1003700080E065E040E00E94DF0082E061E00E94F2
:10038000B20082E060E00E9458017E010894E11C06
:10039000F11C8E010E5F1F4F17C08981882319F051
:1003A000813051F404C080E061E041E003C080E0AE
:1003B00061E040E00E94DF0081E0B8010E948B0113
:1003C00082E06A810E94580181E065E0A7010E94F5
:1003D0006C01882311F70F900F90CF91DF911F913F
:0C03E0000F91FF90EF900895F894FFCF6C
:00000001FF
