:100000000C942A000C943F000C943F000C943F0089
:100010000C943F000C943F000C943F000C943F0064
:100020000C943F000C943F000C943F000C943F0054
:100030000C943F000C943F000C943F000C943F0044
:100040000C943F000C943F000C943F000C943F0034
:100050000C943F0011241FBECFE5D8E0DEBFCDBF1A
:1000600010E0A0E6B0E0E2E8FCE102C005900D92ED
:10007000A03BB107D9F70E94E80C0C943F0E0C94FA
:100080000000EF92FF920F931F937B018C0120E001
:1000900030E040E05FE40E94410388238CF0C80117
:1000A000B70120E030E040E05FE40E94B9010E9427
:1000B000A1039B01AC01205030404040504806C095
:1000C000C801B7010E94A1039B01AC01B901CA019B
:1000D0001F910F91FF90EF900895A0E0B0E0E3E74B
:1000E000F0E00C94080EDC012B01FA019C91923097
:1000F00008F439C1EB018881823008F433C19430AF
:1001000069F4843009F02FC111969C91119789816F
:10011000981709F428C1A8E6B0E025C1843009F495
:1001200021C18230A9F4923009F01DC19A01AD01BC
:1001300088E0EA010990AE01E90109929E0181502F
:10014000C1F7E201898111969C918923818308C1BD
:10015000923009F407C112962D903C901397EB0151
:100160008A819B811496AD90BD90CD90DC901797BD
:10017000EC80FD800E811F819101281B390BB90194
:1001800037FF04C066277727621B730B6032710547
:100190000CF061C0121613066CF537014801062EEB
:1001A00004C096948794779467940A94D2F721E0D8
:1001B00030E040E050E004C0220F331F441F551FC1
:1001C0006A95D2F721503040404050402E213F21C7
:1001D00040235123211531054105510521F021E02E
:1001E00030E040E050E079018A01E628F72808294C
:1001F00019293CC0232BD1F1260E371E35014601AB
:10020000062E04C096948794779467940A94D2F744
:1002100021E030E040E050E004C0220F331F441FD3
:10022000551F6A95D2F721503040404050402A2156
:100230003B214C215D21211531054105510521F05E
:1002400021E030E040E050E059016A01A628B728DB
:10025000C828D9280BC0821593052CF01C01AA24AC
:10026000BB24650103C0EE24FF24870111969C91F5
:10027000D20111968C91981709F445C0992339F051
:10028000A80197012A193B094C095D0906C0A6017E
:1002900095012E193F09400B510B57FD08C01182E3
:1002A0003382228224833583468357831DC081E0B5
:1002B00081833382228288279927DC01821B930B5A
:1002C000A40BB50B84839583A683B7830DC0220F3F
:1002D000331F441F551F24833583468357838281F0
:1002E000938101979383828324813581468157814D
:1002F000DA01C9010197A109B1098F5F9F4FAF4F83
:10030000BF4328F30BC0918333822282EA0CFB1C8B
:100310000C1D1D1DE482F5820683178383E0808314
:10032000248135814681578157FF1AC0C901AA2708
:1003300097FDA095BA2F81709070A070B0705695FF
:10034000479537952795822B932BA42BB52B848328
:100350009583A683B7838281938101969383828359
:10036000DF0101C0D201CD01CDB7DEB7E2E10C94CF
:10037000240EA0E2B0E0EFEBF1E00C94140E6983E0
:100380007A838B839C832D833E834F835887E9E058
:10039000EE2EF12CEC0EFD1ECE010196B7010E944F
:1003A000CA048E010F5E1F4FCE010596B8010E9450
:1003B000CA048A8991E089278A8BC701B801AE01F6
:1003C000475E5F4F0E946D000E94F503A096E6E035
:1003D0000C94300EA0E2B0E0E0EFF1E00C94140ECB
:1003E00069837A838B839C832D833E834F835887D5
:1003F000F9E0EF2EF12CEC0EFD1ECE010196B701B7
:100400000E94CA048E010F5E1F4FCE010596B801EF
:100410000E94CA04C701B801AE01475E5F4F0E9447
:100420006D000E94F503A096E6E00C94300EA0E269
:10043000B0E0EDE1F2E00C94080E69837A838B83DF
:100440009C832D833E834F835887CE010196BE0146
:10045000675F7F4F0E94CA04CE010596BE016F5EA2
:100460007F4F0E94CA049985923088F08989823032
:10047000C8F0943019F4823051F404C0843029F467
:10048000923081F488E690E0C6C0923049F420E0D2
:100490009A858A89981321E02A87CE010996BBC0E4
:1004A000823049F420E09A858A89981321E02A8BCA
:1004B000CE014196B0C02D843E844F8458886D880B
:1004C0007E888F88988CEE24FF248701AA24BB2481
:1004D000650140E050E060E070E0E0E0F0E0C10184
:1004E00081709070892BE9F0E60CF71C081D191D2E
:1004F0009A01AB012A0D3B1D4C1D5D1D80E090E073
:10050000A0E0B0E0E614F7040805190520F481E046
:1005100090E0A0E0B0E0BA01A901480F591F6A1F9E
:100520007B1FAA0CBB1CCC1CDD1C97FE08C081E005
:1005300090E0A0E0B0E0A82AB92ACA2ADB2A3196C6
:10054000E032F10549F0660C771C881C991C569422
:10055000479437942794C3CFFA85EA892B893C893D
:100560008B859C85280F391F2E5F3F4F17C0CA010E
:1005700081709070892B61F016950795F794E79438
:1005800080E090E0A0E0B0E8E82AF92A0A2B1B2BD3
:1005900076956795579547952F5F3F4F77FDE7CF46
:1005A0000CC0440F551F661F771F17FD4160EE0CEE
:1005B000FF1C001F111F21503040403090E05907B0
:1005C00090E0690790E4790760F32B8F3C8FDB01A3
:1005D000CA018F779070A070B07080349105A1052A
:1005E000B10561F447FD0AC0E114F10401051105EC
:1005F00029F0405C5F4F6F4F7F4F40781A8EFE1797
:1006000011F081E08A8F4D8F5E8F6F8F78A383E02A
:10061000898FCE0149960E94F503A096E2E10C94E1
:10062000240EA8E1B0E0E7E1F3E00C94140E698336
:100630007A838B839C832D833E834F83588789E005
:10064000E82EF12CEC0EFD1ECE010196B7010E94A2
:10065000CA048E010F5E1F4FCE010596B8010E949D
:10066000CA048985823040F08989823028F0C70128
:10067000B8010E94420501C08FEF6896E6E00C9435
:10068000300EA8E1B0E0E7E4F3E00C94140E6983C7
:100690007A838B839C832D833E834F83588789E0A5
:1006A000E82EF12CEC0EFD1ECE010196B7010E9442
:1006B000CA048E010F5E1F4FCE010596B8010E943D
:1006C000CA048985823040F08989823028F0C701C8
:1006D000B8010E94420501C08FEF6896E6E00C94D5
:1006E000300EA8E1B0E0E7E7F3E00C94140E698364
:1006F0007A838B839C832D833E834F83588789E045
:10070000E82EF12CEC0EFD1ECE010196B7010E94E1
:10071000CA048E010F5E1F4FCE010596B8010E94DC
:10072000CA048985823040F08989823028F0C70167
:10073000B8010E94420501C081E06896E6E00C9491
:10074000300EACE0B0E0E7EAF3E00C94180E6983F9
:100750007A838B839C83CE010196BE016B5F7F4FB2
:100760000E94CA048D81823061F1823050F1843060
:1007700021F48E81882351F12EC02F81388537FDD9
:1007800020C06E812F3131051CF06623F9F023C0A3
:100790008EE190E0821B930B29853A854B855C8521
:1007A00004C056954795379527958A95D2F76623C5
:1007B000B1F050954095309521953F4F4F4F5F4F89
:1007C0000EC020E030E040E050E009C02FEF3FEFE6
:1007D0004FEF5FE704C020E030E040E050E8B901AF
:1007E000CA012C96E2E00C94340EDF92EF92FF9255
:1007F0000F931F93FC01E480F58006811781D1805F
:100800008081823048F480E090E0A0E1B0E0E82A06
:10081000F92A0A2B1B2BA5C0843009F49FC0823013
:1008200021F4EE24FF24870105C0E114F104010541
:10083000110519F4E0E0F0E096C0628173819FEF4A
:10084000623879070CF05BC022E83FEF261B370BBC
:100850002A3131052CF020E030E040E050E02AC0A1
:10086000B801A701022E04C0769567955795479564
:100870000A94D2F781E090E0A0E0B0E004C0880FD5
:10088000991FAA1FBB1F2A95D2F70197A109B10989
:100890008E219F21A023B1230097A105B10521F04E
:1008A00081E090E0A0E0B0E09A01AB01282B392B69
:1008B0004A2B5B2BDA01C9018F779070A070B07062
:1008C00080349105A105B10539F427FF09C0205CEA
:1008D0003F4F4F4F5F4F04C0215C3F4F4F4F5F4F23
:1008E000E0E0F0E02030A0E03A07A0E04A07A0E412
:1008F0005A0710F0E1E0F0E079018A0127C0603882
:10090000710564F5FB01E158FF4FD801C7018F77EE
:100910009070A070B07080349105A105B10539F4D4
:10092000E7FE0DC080E490E0A0E0B0E004C08FE3FB
:1009300090E0A0E0B0E0E80EF91E0A1F1B1F17FFB1
:1009400005C016950795F794E794319687E01695BC
:100950000795F794E7948A95D1F705C0EE24FF2414
:100960008701EFEFF0E06E2F679566276795902F70
:100970009F77D794DD24D7948E2F8695492F462BC9
:10098000582F5D29B701CA011F910F91FF90EF9079
:10099000DF900895FC01DB01408151812281622FAB
:1009A0006F7770E0221F2227221F9381892F880FE3
:1009B000822B282F30E0991F9927991F11969C931D
:1009C000119721153105A9F54115510561057105ED
:1009D00011F482E037C082E89FEF13969C938E93C8
:1009E00012979A01AB0167E0220F331F441F551F76
:1009F0006A95D1F783E08C930DC0220F331F441FFB
:100A0000551F12968D919C911397019713969C9365
:100A10008E931297203080E0380780E0480780E40A
:100A2000580758F314962D933D934D935C93179765
:100A300008952F3F310579F4411551056105710580
:100A400019F484E08C93089564FF03C081E08C93D3
:100A500012C01C9210C02F57304013963C932E9317
:100A6000129783E08C9387E0440F551F661F771F12
:100A70008A95D1F7706414964D935D936D937C9332
:100A8000179708951F93DC01FB019C91923008F4A5
:100A900047C08081823008F443C0943051F41196ED
:100AA0001C91843099F58181682F70E0611B710978
:100AB0003FC0843021F0923031F48230B9F181812D
:100AC000882389F12DC011961C9111978230F1F085
:100AD00081811817D9F412962D913C911397828138
:100AE00093818217930794F028173907BCF0149666
:100AF0008D919D910D90BC91A02D248135814681D1
:100B00005781281739074A075B0718F4112341F06A
:100B10000AC082179307A407B50740F4112319F000
:100B200061E070E005C06FEF7FEF02C060E070E051
:100B3000CB011F910895DF93CF93CDB7DEB72997EF
:100B40000FB6F894DEBF0FBECDBF9C838B836D8341
:100B50002E833F83488759878D8181508A838A817C
:100B6000282F332727FD30958B819C81FC01E20FD4
:100B7000F31F10828A8181508A8331C08E819F81C8
:100B8000A885B9852AE030E040E050E0BC01CD0105
:100B90000E94E60DDC01CB0189838A81282F33274F
:100BA00027FD30958B819C81FC01E20FF31F898129
:100BB000805D80838E819F81A885B9852AE030E0A1
:100BC00040E050E0BC01CD010E94E60DDA01C90110
:100BD0008E839F83A887B9878A8181508A838A817F
:100BE000882364F629960FB6F894DEBF0FBECDBFFA
:100BF000CF91DF910895DF93CF9300D000D00F9273
:100C0000CDB7DEB76A837B838C839D8381E0898344
:100C100015C089818F5F89838A819B81AC81BD8169
:100C20002AE030E040E050E0BC01CD010E94E60D3A
:100C3000DA01C9018A839B83AC83BD838A819B814E
:100C4000AC81BD818A309105A105B10510F789817C
:100C50000F900F900F900F900F90CF91DF9108950C
:100C6000DF93CF93CDB7DEB72E970FB6F894DEBFE4
:100C70000FBECDBF80E090E0A0E2B2E48B879C87FE
:100C8000AD87BE876B857C858D859E8520E030E0B5
:100C90004AEF54E40E941702DC01CB018F8398874E
:100CA000A987BA876F81788589859A8520E030E0A9
:100CB00040E85FE30E94710388232CF481E090E018
:100CC0009E838D833FC06F81788589859A8520E0DA
:100CD0003FEF4FE757E40E94110318164CF56B8560
:100CE0007C858D859E8520E030E040E251E40E94C5
:100CF0001702DC01CB01BC01CD010E944100DC01E7
:100D0000CB019E838D830FC088EC90E09C838B8306
:100D10008B819C810197F1F79C838B838D819E81D0
:100D200001979E838D838D819E81009769F714C002
:100D30006F81788589859A850E944100DC01CB010D
:100D40009E838D838D819E819A83898389819A81F7
:100D50000197F1F79A83898388E30E94BE068CE0AD
:100D60000E94BE0681E00E94BE062E960FB6F89441
:100D7000DEBF0FBECDBFCF91DF910895DF93CF933C
:100D8000CDB7DEB72F970FB6F894DEBF0FBECDBF3D
:100D90008F8782E065E040E00E94A90A82E066E079
:100DA00040E00E94A90A83E06F850E94BB0B82E0AD
:100DB00067E041E00E94A90A80E090E0A0E0B0E492
:100DC0008B879C87AD87BE876B857C858D859E854F
:100DD00020E030E04AEF54E40E941702DC01CB012E
:100DE0008F839887A987BA876F81788589859A8547
:100DF00020E030E040E85FE30E94710388232CF498
:100E000081E090E09E838D833FC06F8178858985E6
:100E10009A8520E03FEF4FE757E40E941103181630
:100E20004CF56B857C858D859E8520E030E040E229
:100E300051E40E941702DC01CB01BC01CD010E94EC
:100E40004100DC01CB019E838D830FC088EC90E0D4
:100E50009C838B838B819C810197F1F79C838B838F
:100E60008D819E8101979E838D838D819E810097C8
:100E700069F714C06F81788589859A850E94410041
:100E8000DC01CB019E838D838D819E819A83898332
:100E900089819A810197F1F79A83898382E067E0DB
:100EA00040E00E94A90A2F960FB6F894DEBF0FBE4D
:100EB000CDBFCF91DF910895DF93CF93CDB7DEB74C
:100EC0002F970FB6F894DEBF0FBECDBF8F8782E09D
:100ED00065E041E00E94A90A82E066E040E00E94ED
:100EE000A90A83E06F850E94BB0B82E067E041E0C6
:100EF0000E94A90A80E090E0A0E0B0E48B879C8784
:100F0000AD87BE876B857C858D859E8520E030E032
:100F10004AEF54E40E941702DC01CB018F839887CB
:100F2000A987BA876F81788589859A8520E030E026
:100F300040E85FE30E94710388232CF481E090E095
:100F40009E838D833FC06F81788589859A8520E057
:100F50003FEF4FE757E40E94110318164CF56B85DD
:100F60007C858D859E8520E030E040E251E40E9442
:100F70001702DC01CB01BC01CD010E944100DC0164
:100F8000CB019E838D830FC088EC90E09C838B8384
:100F90008B819C810197F1F79C838B838D819E814E
:100FA00001979E838D838D819E81009769F714C080
:100FB0006F81788589859A850E944100DC01CB018B
:100FC0009E838D838D819E819A83898389819A8175
:100FD0000197F1F79A83898382E067E040E00E94FD
:100FE000A90A2F960FB6F894DEBF0FBECDBFCF91E2
:100FF000DF910895DF93CF9300D00F92CDB7DEB786
:101000009B838A8319820EC08981282F30E08A81D0
:101010009B81FC01E20FF31F80810E945C078981A4
:101020008F5F89838981282F30E08A819B81FC0131
:10103000E20FF31F8081882339F70F900F900F90F4
:10104000CF91DF910895DF93CF930F92CDB7DEB7A5
:10105000898389810E945C070F90CF91DF91089569
:10106000DF93CF93CDB7DEB781E00E94BE06CF916C
:10107000DF910895DF93CF93CDB7DEB782E00E9472
:10108000BE06CF91DF910895DF93CF9300D00F92EA
:10109000CDB7DEB78A836B838A81882319F48B816D
:1010A000898306C08A81813019F48B81805C8983B1
:1010B00089818068898389810E94BE060F900F9084
:1010C0000F90CF91DF910895DF93CF9300D000D0A0
:1010D0000F92CDB7DEB79C838B836D831A828D818F
:1010E000882F90E0880F991F880F991F880F991FEC
:1010F0008A838A8180648A838A810E94BE061982DB
:101100000EC08981282F30E08B819C81FC01E20F89
:10111000F31F80810E945C0789818F5F89838981A9
:10112000883078F30F900F900F900F900F90CF9121
:10113000DF910895DF93CF9300D00F92CDB7DEB744
:1011400089836A834B838A816B810E9444088981E9
:101150000E945C070F900F900F90CF91DF91089540
:10116000EF92FF920F931F93DF93CF93CDB7DEB72C
:1011700029970FB6F894DEBF0FBECDBF6C837D8379
:101180008E839F830DB71EB78DB79EB77C018C8170
:101190009D81AE81BF81BC01CD010E94FB058F5FA7
:1011A00089838981882F90E02DB73EB7281B390BA2
:1011B0000FB6F8943EBF0FBE2DBF8DB79EB70196F8
:1011C0009987888788859985009699878887288553
:1011D00039853B832A838A819B812C813D814E8185
:1011E0005F8169810E949B058A819B810E94FA0729
:1011F0000FB6F894FEBE0FBEEDBE0FB6F8941EBF3C
:101200000FBE0DBF29960FB6F894DEBF0FBECDBF3F
:10121000CF91DF911F910F91FF90EF900895DF9391
:10122000CF93CDB7DEB728970FB6F894DEBF0FBEC9
:10123000CDBF8A836B834C8319828C81813009F006
:1012400076C08B81883008F072C08A81282F30E008
:1012500038872F838F8198858130910549F12F81BF
:101260003885223031052CF48F819885009761F004
:101270005BC02F8138852230310571F18F819885CF
:1012800083309105E9F150C0AAE3B0E0EAE3F0E071
:101290008081482F8B81282F30E081E090E0022E62
:1012A00002C0880F991F0A94E2F7842B8C93C0C068
:1012B000A7E3B0E0E7E3F0E08081482F8B81282F9F
:1012C00030E081E090E0022E02C0880F991F0A945E
:1012D000E2F7842B8C93ACC0A4E3B0E0E4E3F0E04D
:1012E0008081482F8B81282F30E081E090E0022E12
:1012F00002C0880F991F0A94E2F7842B8C9398C040
:10130000A1E3B0E0E1E3F0E08081482F8B81282F5A
:1013100030E081E090E0022E02C0880F991F0A940D
:10132000E2F7842B8C9384C081E0898381C08C8117
:10133000882309F07BC08B81883008F077C08A81D0
:10134000282F30E03E832D838D819E818130910551
:1013500059F12D813E81223031052CF48D819E8101
:10136000009769F060C02D813E812230310589F1FE
:101370008D819E818330910509F440C054C0AAE359
:10138000B0E0EAE3F0E08081482F8B81282F30E045
:1013900081E090E0022E02C0880F991F0A94E2F7C4
:1013A000809584238C9344C0A7E3B0E0E7E3F0E0AA
:1013B0008081482F8B81282F30E081E090E0022E41
:1013C00002C0880F991F0A94E2F7809584238C93BA
:1013D0002FC0A4E3B0E0E4E3F0E08081482F8B81EC
:1013E000282F30E081E090E0022E02C0880F991F84
:1013F0000A94E2F7809584238C931AC0A1E3B0E0AD
:10140000E1E3F0E08081482F8B81282F30E081E0FC
:1014100090E0022E02C0880F991F0A94E2F780958F
:1014200084238C9305C081E0898302C081E0898395
:10143000898128960FB6F894DEBF0FBECDBFCF913D
:10144000DF910895DF93CF93CDB7DEB727970FB61F
:10145000F894DEBF0FBECDBF8A836B8319828B8168
:101460008130B1F58A81282F30E03F832E838E8131
:101470009F8181309105D1F02E813F81223031054D
:101480002CF48E819F81009761F01FC02E813F81D7
:101490002230310581F08E819F818330910581F06A
:1014A00014C0EAE3F0E08FEF808349C0E7E3F0E0A7
:1014B0008FEF808344C0E4E3F0E08FEF80833FC090
:1014C000E1E3F0E08FEF80833AC081E0898337C0A9
:1014D0008B81882391F58A81282F30E03D832C83EE
:1014E0008C819D8181309105C9F02C813D81223014
:1014F00031052CF48C819D81009761F01BC02C81FB
:101500003D812230310571F08C819D8183309105C0
:1015100069F010C0EAE3F0E0108211C0E7E3F0E008
:1015200010820DC0E4E3F0E0108209C0E1E3F0E0D6
:10153000108205C081E0898302C081E089838981AE
:1015400027960FB6F894DEBF0FBECDBFCF91DF91C7
:101550000895DF93CF93CDB7DEB728970FB6F894F1
:10156000DEBF0FBECDBF8A836B834C8319828B8114
:10157000883008F0F4C08C81813009F072C08A8113
:10158000282F30E038872F838F819885813091050F
:1015900049F12F813885223031052CF48F819885CF
:1015A000009761F05BC02F8138852230310571F1E1
:1015B0008F81988583309105E9F150C0ABE3B0E0AD
:1015C000EBE3F0E08081482F8B81282F30E081E031
:1015D00090E0022E02C0880F991F0A94E2F7842B34
:1015E0008C93BFC0A8E3B0E0E8E3F0E08081482F2F
:1015F0008B81282F30E081E090E0022E02C0880F1E
:10160000991F0A94E2F7842B8C93ABC0A5E3B0E05A
:10161000E5E3F0E08081482F8B81282F30E081E0E6
:1016200090E0022E02C0880F991F0A94E2F7842BE3
:101630008C9397C0A2E3B0E0E2E3F0E08081482F12
:101640008B81282F30E081E090E0022E02C0880FCD
:10165000991F0A94E2F7842B8C9383C081E08983DD
:1016600080C08C81882309F077C08A81282F30E0E0
:101670003E832D838D819E818130910559F12D818D
:101680003E81223031052CF48D819E81009769F0D6
:1016900060C02D813E812230310589F18D819E818E
:1016A0008330910509F440C054C0ABE3B0E0EBE3F4
:1016B000F0E08081482F8B81282F30E081E090E09E
:1016C000022E02C0880F991F0A94E2F780958423A6
:1016D0008C9347C0A8E3B0E0E8E3F0E08081482FB6
:1016E0008B81282F30E081E090E0022E02C0880F2D
:1016F000991F0A94E2F7809584238C9332C0A5E366
:10170000B0E0E5E3F0E08081482F8B81282F30E0C6
:1017100081E090E0022E02C0880F991F0A94E2F740
:10172000809584238C931DC0A2E3B0E0E2E3F0E057
:101730008081482F8B81282F30E081E090E0022EBD
:1017400002C0880F991F0A94E2F7809584238C9336
:1017500008C081E0898305C081E0898302C081E0FF
:101760008983898128960FB6F894DEBF0FBECDBF5E
:10177000CF91DF910895DF93CF9300D000D00F92E7
:10178000CDB7DEB78A836B8319828A81282F30E038
:101790003D832C838C819D8181309105D1F02C81FA
:1017A0003D81223031052CF48C819D81009761F0C0
:1017B0001FC02C813D812230310581F08C819D81BB
:1017C0008330910581F014C0EBE3F0E08B818083DE
:1017D00011C0E8E3F0E08B8180830CC0E5E3F0E02A
:1017E0008B81808307C0E2E3F0E08B81808302C0BD
:1017F00081E0898389810F900F900F900F900F9057
:10180000CF91DF910895DF93CF93CDB7DEB72797C0
:101810000FB6F894DEBF0FBECDBF8A836B835D83A6
:101820004C8319828B81883008F074C08A81282FFC
:1018300030E03F832E834E815F814130510559F165
:101840008E819F818230910534F42E813F81211554
:10185000310569F05CC04E815F814230510579F1FC
:101860008E819F818330910509F43DC050C0E9E32A
:10187000F0E08081282F30E08B81882F90E0A90153
:1018800002C0559547958A95E2F7CA018170EC81AF
:10189000FD81808341C0E6E3F0E08081282F30E0C5
:1018A0008B81882F90E0A90102C0559547958A95B4
:1018B000E2F7CA018170EC81FD8180832DC0E3E3F2
:1018C000F0E08081282F30E08B81882F90E0A90103
:1018D00002C0559547958A95E2F7CA018170EC815F
:1018E000FD81808319C0E0E3F0E08081282F30E0A3
:1018F0008B81882F90E0A90102C0559547958A9564
:10190000E2F7CA018170EC81FD81808305C081E02E
:10191000898302C081E08983898127960FB6F89474
:10192000DEBF0FBECDBFCF91DF910895DF93CF9380
:1019300000D000D000D0CDB7DEB78A837C836B8324
:1019400019828A81282F30E03E832D838D819E81EC
:1019500081309105E1F02D813E81223031052CF45A
:101960008D819E81009761F027C02D813E812230BC
:101970003105A1F08D819E8183309105B1F01CC0AD
:10198000E9E3F0E08081EB81FC81808317C0E6E32E
:10199000F0E08081EB81FC81808310C0E3E3F0E024
:1019A0008081EB81FC81808309C0E0E3F0E08081ED
:1019B000EB81FC81808302C081E089838981269646
:1019C0000FB6F894DEBF0FBECDBFCF91DF91089563
:1019D000DF93CF93CDB7DEB760970FB6F894DEBF35
:1019E0000FBECDBF83E061E00E94220A82E065E085
:1019F00041E00E940F0982E066E041E00E940F0989
:101A000082E067E041E00E940F090E94300680E713
:101A100090E060E00E94640888E790E061E00E9446
:101A2000640880E890E062E00E94640888E890E042
:101A300063E00E94640880E990E064E00E9464082A
:101A400080E060E040E00E949A0884E060E041E0CD
:101A50000E949A08188AA3C081E08F8799C080E00D
:101A600090E0AAE7B3E48B879C87AD87BE876B8540
:101A70007C858D859E8520E030E04AEF54E40E940D
:101A80001702DC01CB018F839887A987BA876F8102
:101A9000788589859A8520E030E040E85FE30E9400
:101AA000710388232CF481E090E09E838D833FC0F6
:101AB0006F81788589859A8520E03FEF4FE757E46D
:101AC0000E94110318164CF56B857C858D859E85CB
:101AD00020E030E040E251E40E941702DC01CB013B
:101AE000BC01CD010E944100DC01CB019E838D83AE
:101AF0000FC088EC90E09C838B838B819C81019745
:101B0000F1F79C838B838D819E8101979E838D83CA
:101B10008D819E81009769F714C06F8178858985D2
:101B20009A850E944100DC01CB019E838D838D81CB
:101B30009E819A83898389819A810197F1F79A839B
:101B400089830E9430088889282F30E0C901880FD6
:101B5000991F820F931F982F8F85980F8F8560E0B4
:101B6000492F0E949A088889282F30E0C901880FE0
:101B7000991F820F931F982F8F85890F982F9F5F32
:101B800084E060E0492F0E949A088F858F5F8F87DD
:101B90008F85843008F463CF88898F5F888B88892C
:101BA000853008F459CF0E94300880E066E00E943A
:101BB000440880E690E00E94FA0781E066E00E9417
:101BC000440884E690E00E94FA07FFCFA1E21A2EB3
:101BD000AA1BBB1BFD010DC0AA1FBB1FEE1FFF1FD1
:101BE000A217B307E407F50720F0A21BB30BE40B21
:101BF000F50B661F771F881F991F1A9469F7609568
:101C00007095809590959B01AC01BD01CF01089521
:101C10002F923F924F925F926F927F928F929F92FC
:101C2000AF92BF92CF92DF92EF92FF920F931F93EA
:101C3000CF93DF93CDB7DEB7CA1BDB0B0FB6F8949B
:101C4000DEBF0FBECDBF09942A88398848885F84DB
:101C50006E847D848C849B84AA84B984C884DF804C
:101C6000EE80FD800C811B81AA81B981CE0FD11D30
:101C70000FB6F894DEBF0FBECDBFED010895F89406
:021C8000FFCF94
:101C820054484500454E440000000000000000009A
:101C92000E0E040E150A0A000606050E140A12009C
:101CA2000606050E140A11000606050E14060900A2
:101CB200000000000E0E0E000303021E1E0A0A00A0
:101CC2000606140E050A09000707071C060D120076
:00000001FF
