:100000000C942A000C943F000C943F000C943F0089
:100010000C943F000C943F000C943F000C943F0064
:100020000C943F000C943F000C943F000C943F0054
:100030000C943F000C943F000C943F000C943F0044
:100040000C943F000C943F000C943F000C943F0034
:100050000C943F0011241FBECFE5D8E0DEBFCDBF1A
:1000600010E0A0E6B0E0EAEAFBE002C005900D92E5
:10007000AC36B107D9F70E941E050C94D3050C9439
:100080000000DF93CF93CDB7DEB727970FB6F89474
:10009000DEBF0FBECDBF9B838A83EA81FB81808157
:1000A000EA81FB819181692F9E012F5F3F4FA9015A
:1000B0000E943904EA81FB8182818823A1F489812D
:1000C000282F30E03F832E838E819F81009731F06F
:1000D0002E813F812130310519F01DC019821BC0CE
:1000E00081E0898318C0EA81FB818281813099F4A3
:1000F0008981282F30E03D832C838C819D8100975E
:1001000031F02C813D812130310521F004C081E0A6
:10011000898301C01982898127960FB6F894DEBFC2
:100120000FBECDBFCF91DF910895DF93CF9300D065
:1001300000D00F92CDB7DEB79B838A8319828A8164
:100140009B81009709F43EC0EA81FB818281282FC0
:1001500030E03D832C838C819D81009731F02C8190
:100160003D8121303105B1F02AC0EA81FB818081D7
:10017000EA81FB819181692F41E00E944501EA817A
:10018000FB818081EA81FB819181692F40E00E949F
:10019000DF021AC0EA81FB818081EA81FB819181C3
:1001A000692F41E00E944501EA81FB818081EA815B
:1001B000FB819181692F41E00E94DF0205C081E04F
:1001C000898302C081E0898389810F900F900F900D
:1001D0000F900F90CF91DF910895DF93CF9300D0D0
:1001E00000D00F92CDB7DEB79B838A8319828A81B4
:1001F0009B81009709F43EC0EA81FB818281282F10
:1002000030E03D832C838C819D81009731F02C81DF
:100210003D8121303105B1F02AC0EA81FB81808126
:10022000EA81FB819181692F41E00E944501EA81C9
:10023000FB818081EA81FB819181692F41E00E94ED
:10024000DF021AC0EA81FB818081EA81FB81918112
:10025000692F41E00E944501EA81FB818081EA81AA
:10026000FB819181692F40E00E94DF0205C081E09F
:10027000898302C081E0898389810F900F900F905C
:100280000F900F90CF91DF910895DF93CF93CDB76B
:10029000DEB728970FB6F894DEBF0FBECDBF8A83B6
:1002A0006B834C8319828C81813009F076C08B81FD
:1002B000883008F072C08A81282F30E038872F8379
:1002C0008F8198858130910549F12F8138852230C1
:1002D00031052CF48F819885009761F05BC02F81E8
:1002E00038852230310571F18F81988583309105F1
:1002F000E9F150C0AAE3B0E0EAE3F0E08081482FE2
:100300008B81282F30E081E090E0022E02C0880F20
:10031000991F0A94E2F7842B8C93C0C0A7E3B0E046
:10032000E7E3F0E08081482F8B81282F30E081E0E7
:1003300090E0022E02C0880F991F0A94E2F7842BE6
:100340008C93ACC0A4E3B0E0E4E3F0E08081482FFC
:100350008B81282F30E081E090E0022E02C0880FD0
:10036000991F0A94E2F7842B8C9398C0A1E3B0E024
:10037000E1E3F0E08081482F8B81282F30E081E09D
:1003800090E0022E02C0880F991F0A94E2F7842B96
:100390008C9384C081E0898381C08C81882309F09B
:1003A0007BC08B81883008F077C08A81282F30E0AD
:1003B0003E832D838D819E818130910559F12D8160
:1003C0003E81223031052CF48D819E81009769F0A9
:1003D00060C02D813E812230310589F18D819E8161
:1003E0008330910509F440C054C0AAE3B0E0EAE3C9
:1003F000F0E08081482F8B81282F30E081E090E071
:10040000022E02C0880F991F0A94E2F78095842378
:100410008C9344C0A7E3B0E0E7E3F0E08081482F8D
:100420008B81282F30E081E090E0022E02C0880FFF
:10043000991F0A94E2F7809584238C932FC0A4E33C
:10044000B0E0E4E3F0E08081482F8B81282F30E09A
:1004500081E090E0022E02C0880F991F0A94E2F713
:10046000809584238C931AC0A1E3B0E0E1E3F0E02F
:100470008081482F8B81282F30E081E090E0022E90
:1004800002C0880F991F0A94E2F7809584238C9309
:1004900005C081E0898302C081E089838981289633
:1004A0000FB6F894DEBF0FBECDBFCF91DF91089598
:1004B000DF93CF93CDB7DEB727970FB6F894DEBFA3
:1004C0000FBECDBF8A836B8319828B818130B1F5DA
:1004D0008A81282F30E03F832E838E819F81813057
:1004E0009105D1F02E813F81223031052CF48E818F
:1004F0009F81009761F01FC02E813F81223031051E
:1005000081F08E819F818330910581F014C0EAE3F0
:10051000F0E08FEF808349C0E7E3F0E08FEF808366
:1005200044C0E4E3F0E08FEF80833FC0E1E3F0E01C
:100530008FEF80833AC081E0898337C08B81882325
:1005400091F58A81282F30E03D832C838C819D8119
:1005500081309105C9F02C813D81223031052CF488
:100560008C819D81009761F01BC02C813D812230E0
:10057000310571F08C819D818330910569F010C047
:10058000EAE3F0E0108211C0E7E3F0E010820DC072
:10059000E4E3F0E0108209C0E1E3F0E0108205C07E
:1005A00081E0898302C081E08983898127960FB623
:1005B000F894DEBF0FBECDBFCF91DF910895DF93DA
:1005C000CF93CDB7DEB728970FB6F894DEBF0FBE36
:1005D000CDBF8A836B834C8319828B81883008F06E
:1005E000F4C08C81813009F072C08A81282F30E0FC
:1005F00038872F838F8198858130910549F12F812C
:100600003885223031052CF48F819885009761F070
:100610005BC02F8138852230310571F18F8198853B
:1006200083309105E9F150C0ABE3B0E0EBE3F0E0DB
:100630008081482F8B81282F30E081E090E0022ECE
:1006400002C0880F991F0A94E2F7842B8C93BFC0D5
:10065000A8E3B0E0E8E3F0E08081482F8B81282F09
:1006600030E081E090E0022E02C0880F991F0A94CA
:10067000E2F7842B8C93ABC0A5E3B0E0E5E3F0E0B8
:100680008081482F8B81282F30E081E090E0022E7E
:1006900002C0880F991F0A94E2F7842B8C9397C0AD
:1006A000A2E3B0E0E2E3F0E08081482F8B81282FC5
:1006B00030E081E090E0022E02C0880F991F0A947A
:1006C000E2F7842B8C9383C081E0898380C08C8186
:1006D000882309F077C08A81282F30E03E832D835C
:1006E0008D819E818130910559F12D813E8122308D
:1006F00031052CF48D819E81009769F060C02D81B9
:100700003E812230310589F18D819E8183309105B2
:1007100009F440C054C0ABE3B0E0EBE3F0E080810B
:10072000482F8B81282F30E081E090E0022E02C01C
:10073000880F991F0A94E2F7809584238C9347C011
:10074000A8E3B0E0E8E3F0E08081482F8B81282F18
:1007500030E081E090E0022E02C0880F991F0A94D9
:10076000E2F7809584238C9332C0A5E3B0E0E5E303
:10077000F0E08081482F8B81282F30E081E090E0ED
:10078000022E02C0880F991F0A94E2F780958423F5
:100790008C931DC0A2E3B0E0E2E3F0E08081482F3B
:1007A0008B81282F30E081E090E0022E02C0880F7C
:1007B000991F0A94E2F7809584238C9308C081E006
:1007C000898305C081E0898302C081E089838981B2
:1007D00028960FB6F894DEBF0FBECDBFCF91DF9144
:1007E0000895DF93CF9300D000D00F92CDB7DEB73E
:1007F0008A836B8319828A81282F30E03D832C8382
:100800008C819D8181309105D1F02C813D812230F8
:1008100031052CF48C819D81009761F01FC02C81E3
:100820003D812230310581F08C819D81833091059D
:1008300081F014C0EBE3F0E08B81808311C0E8E32A
:10084000F0E08B8180830CC0E5E3F0E08B81808356
:1008500007C0E2E3F0E08B81808302C081E08983FE
:1008600089810F900F900F900F900F90CF91DF9193
:100870000895DF93CF93CDB7DEB727970FB6F894DF
:10088000DEBF0FBECDBF8A836B835D834C8319822D
:100890008B81883008F074C08A81282F30E03F8334
:1008A0002E834E815F814130510559F18E819F81A8
:1008B0008230910534F42E813F812115310569F094
:1008C0005CC04E815F814230510579F18E819F81FC
:1008D0008330910509F43DC050C0E9E3F0E0808128
:1008E000282F30E08B81882F90E0A90102C0559518
:1008F00047958A95E2F7CA018170EC81FD8180837A
:1009000041C0E6E3F0E08081282F30E08B81882F22
:1009100090E0A90102C0559547958A95E2F7CA0172
:100920008170EC81FD8180832DC0E3E3F0E0808164
:10093000282F30E08B81882F90E0A90102C05595C7
:1009400047958A95E2F7CA018170EC81FD81808329
:1009500019C0E0E3F0E08081282F30E08B81882F00
:1009600090E0A90102C0559547958A95E2F7CA0122
:100970008170EC81FD81808305C081E0898302C0A4
:1009800081E08983898127960FB6F894DEBF0FBE78
:10099000CDBFCF91DF910895DF93CF9300D000D0EA
:1009A00000D0CDB7DEB78A837C836B8319828A81BE
:1009B000282F30E03E832D838D819E8181309105EB
:1009C000E1F02D813E81223031052CF48D819E8114
:1009D000009761F027C02D813E8122303105A1F0C2
:1009E0008D819E8183309105B1F01CC0E9E3F0E078
:1009F0008081EB81FC81808317C0E6E3F0E0808199
:100A0000EB81FC81808310C0E3E3F0E08081EB8127
:100A1000FC81808309C0E0E3F0E08081EB81FC8110
:100A2000808302C081E08983898126960FB6F8947D
:100A3000DEBF0FBECDBFCF91DF910895DF93CF937F
:100A4000CDB7DEB7A0970FB6F894DEBF0FBECDBF0F
:100A5000CE0101969E878D87E9E6F0E0F88BEF875F
:100A6000F3E0F98BEF85F88900808F8598890196EE
:100A7000988B8F87ED85FE8500828D859E850196FA
:100A80009E878D8799899150998BE989EE2351F73B
:100A9000CE0104969B8B8A8BE6E6F0E0FD8BEC8B17
:100AA000F3E0FE8BEC89FD8900808C899D8901969D
:100AB0009D8B8C8BEA89FB8900828A899B890196B0
:100AC0009B8B8A8B9E8991509E8BEE89EE2351F7EA
:100AD000CE010796988F8F8BE3E6F0E0FA8FE98FCF
:100AE000F3E0FB8FE98DFA8D0080898D9A8D019658
:100AF0009A8F898FEF89F88D00828F89988D019662
:100B0000988F8F8B9B8D91509B8FEB8DEE2351F7A0
:100B1000CE010A969D8F8C8FE0E6F0E0FF8FEE8F7E
:100B2000F3E0F8A3EE8DFF8D00808E8D9F8D0196F2
:100B30009F8F8E8FEC8DFD8D00828C8D9D8D01960B
:100B40009D8F8C8F98A1915098A3E8A1EE2351F727
:100B5000CE0107960E944100882329F4CE01019618
:100B60000E9495000AC0CE0107960E944100813084
:100B700021F4CE0101960E94ED00CE010A960E945A
:100B80004100882329F4CE0104960E949500E0CF0D
:100B9000CE010A960E9441008130D1F6CE01049622
:0A0BA0000E94ED00D5CFF894FFCFBE
:0C0BAA000005010000000204000305012A
:00000001FF
